:100000000C9428010C9459010C9459010C94590139
:100010000C9459010C9459010C9459010C945901F8
:100020000C9459010C9459010C9459010C945901E8
:100030000C9459010C9459010C9459010C945901D8
:100040000C9459010C9459010C9459010C945901C8
:100050000C9459010C9459010C9459010C94A90465
:100060000C9459010C9473040C9449040C94590198
:100070000C9459010C9459010C9459010C94590198
:100080000C9459010C9459010C9459010C94590188
:100090000C9459010C9459010C9459010C94590178
:1000A0000C9459010C9459010C9459010C94590168
:1000B0000C9459010C9459010C9459010C94590158
:1000C0000C9459010C9459010C9459010C94590148
:1000D0000C9459010C9459010C9459010C94590138
:1000E0000C9459010C940D030C940A030C94BF0159
:1000F0000C94D3010C9466020C942F030C94B00161
:100100000C941D030C9421030C9417030C941303FB
:100110000C94E1010C9402030C9406030C94F30478
:100120000C943D030C9439030C9419020C94830134
:100130000C94E7020C9425030C94EC020C9433030A
:100140000C942B030C94FE0200000A0B02090C0D08
:100150000E0807030401000000000000000000007A
:10016000000000000000000000000000000000008F
:10017000000000001211100000000000000000004C
:10018000000000000000000000000000000000006F
:100190002200250028002B002E003100340002012F
:1001A0000000050108010B010000210024002700C8
:1001B0002A002D0030003300010100000401070176
:1001C0000A010505050507050808080802020202DC
:1001D0000A0A0808040404040101010101010101E3
:1001E0000303030303030303040707070C0C0C0CAE
:1001F0000C0C0C0C02020202060606060606060697
:100200000B0B0B0B0B0B0B0B010210202008081023
:100210002040102040800201020108040201010276
:10022000040810204080804020100804020180044F
:1002300002018040201008040201080402010102AA
:100240000408102040800102040810204080F304BC
:1002500011241FBECFEFD1E2DEBFCDBF00E00CBF47
:1002600023E0AEE4B2E001C01D92AE33B207E1F785
:1002700012E0A0E0B2E0EAEDFFE000E00BBF02C058
:1002800007900D92AE34B107D9F711E0C8E2D1E082
:1002900000E006C021970109802FFE010E94E307BC
:1002A000C732D10780E00807A9F70E9432050C94F5
:1002B000EB070C940000EBE5F2E0A089B18982E045
:1002C0008C93A485B5851C92A685B7858FEC8C93FD
:1002D000108EA489B58986E08C93A289B3898C910C
:1002E00080618C93A289B3898C9188608C93A28958
:1002F000B3898C9180688C930288F389E02D80818A
:100300008F7D80830895AF92BF92CF92DF92EF925C
:10031000FF920F931F93CF93DF936C017B018B01AF
:10032000040F151FEB015E01AE18BF08C017D107FF
:1003300059F06991D601ED91FC910190F081E02D89
:10034000C6011995892B79F7C501DF91CF911F91CE
:100350000F91FF90EF90DF90CF90BF90AF900895F6
:10036000FC01538D448D252F30E0842F90E0821BBB
:10037000930B541710F0CF96089501970895FC0140
:10038000918D828D981761F0A28DAE0FBF2FB11D98
:100390005D968C91928D9F5F9F73928F90E00895F0
:1003A0008FEF9FEF0895FC01918D828D981731F0AA
:1003B000828DE80FF11D858D90E008958FEF9FEFFE
:1003C0000895FC01918D228D892F90E0805C9F4FD4
:1003D000821B91098F73992708958BE592E00E9403
:1003E000E10121E0892B09F420E0822F0895FC012E
:1003F000A48DA80FB92FB11DA35ABF4F2C91848D86
:1004000090E001968F739927848FA689B7892C93E2
:10041000A089B1898C91837080648C93938D848D35
:10042000981306C00288F389E02D80818F7D808338
:100430000895EF92FF920F931F93CF93DF93EC01F8
:1004400081E0888F9B8D8C8D98131AC0E889F9897B
:10045000808185FF15C09FB7F894EE89FF8960837E
:10046000E889F98980818370806480839FBF81E0FF
:1004700090E0DF91CF911F910F91FF90EF90089541
:10048000F62E0B8D10E00F5F1F4F0F731127E02E1C
:100490008C8D8E110CC00FB607FCFACFE889F98954
:1004A000808185FFF5CFCE010E94F701F1CFEB8D62
:1004B000EC0FFD2FF11DE35AFF4FF0829FB7F89428
:1004C0000B8FEA89FB8980818062CFCFCF93DF9346
:1004D000EC01888D8823B9F0AA89BB89E889F9895C
:1004E0008C9185FD03C0808186FD0DC00FB607FC91
:1004F000F7CF8C9185FFF2CF808185FFEDCFCE01C4
:100500000E94F701E9CFDF91CF91089580E090E05C
:10051000892B29F00E94ED0181110E94000080E0EA
:1005200090E0892B49F080E090E0892B29F00E942F
:10053000000081110E94000080E090E0892B49F0CA
:1005400080E090E0892B29F00E94000081110E9438
:10055000000080E090E0892B49F080E090E0892B5A
:1005600029F00E94000081110C9400000895282FAA
:1005700030E0F901E85BFE4F9491F901E85FFD4F2F
:1005800044912E533E4FF9012491222309F435C0A2
:10059000992311F191509231F8F4E92FF0E0882776
:1005A000EB52FD4F8F4F0C94E30706030A03E7025B
:1005B000FE020203EC020D03130317031D032103C4
:1005C00025032B032F03EC02330339033D038091F2
:1005D00080008F7780938000E22FF0E0EE0FFF1F06
:1005E000E257FE4FA591B4918FB7F894EC91611149
:1005F00048C040954E234C938FBF08958091800052
:100600008F7DE8CF80918000877FE4CF84B58F779E
:1006100084BDE2CF84B58F7DFBCF8091B0008F7712
:100620008093B000D9CF8091B0008F7DF9CF8091B9
:1006300090008F7780939000CFCF809190008F7D36
:10064000F9CF80919000877FF5CF8091A0008F77C0
:100650008093A000C1CF8091A0008F7DF9CF8091C1
:10066000A000877FF5CF809120018F7780932001B4
:10067000B3CF809120018F7DF9CF80912001877FBA
:10068000F5CF4E2BB8CF3FB7F8948091530290919D
:100690005402A0915502B091560226B5A89B05C000
:1006A0002F3F19F00196A11DB11D3FBFBA2FA92FF1
:1006B000982F8827BC01CD01620F711D811D911DEE
:1006C00042E0660F771F881F991F4A95D1F708955A
:1006D0008F929F92AF92BF92CF92DF92EF92FF9252
:1006E0000E9443034B015C0188EEC82E83E0D82EA4
:1006F000E12CF12C0E944303681979098A099B09AE
:10070000683E734081059105A8F321E0C21AD10823
:10071000E108F10888EE880E83E0981EA11CB11C48
:10072000C114D104E104F10429F7FF90EF90DF90A8
:10073000CF90BF90AF909F908F9008952FB7F8946F
:1007400060914F027091500280915102909152023B
:100750002FBF0895FC0101900020E9F73197AF0108
:10076000481B590BBC018BE592E00C9483018F92DE
:100770009F92AF92BF920F931F93CF93DF93CDB70A
:10078000DEB7A1970FB6F894DEBF0FBECDBF19A29A
:10079000423008F44AE08E010F5D1F4F842E912CE9
:1007A000B12CA12CA50194010E94C107E62FB9012B
:1007B000CA01EA30F4F4E05DD801EE938D01232BF9
:1007C000242B252B79F790E080E0109719F0CD01CC
:1007D0000E94AA03A1960FB6F894DEBF0FBECDBF4C
:1007E000DF91CF911F910F91BF90AF909F908F900D
:1007F0000895E95CE1CFEF92FF920F931F93CF939F
:10080000DF9300D01F92CDB7DEB78BE592E00E9458
:10081000BF018BE592E00E94BF018E010F5F1F4F69
:1008200078018A3341F0F80181938F018BE592E0E2
:100830000E94BF01F6CFC7010E949B07182F8BE5CE
:1008400092E00E94BF018053990B8230910520F401
:10085000682F812F0E94B7028BE592E00E94BF01B2
:100860008A3011F08D30C1F78BE592E00E94D30100
:100870008A3021F48BE592E00E94BF010F900F9027
:100880000F900F90DF91CF911F910F91FF90EF90FC
:1008900008951F920F920FB60F9211240BB60F926C
:1008A0002F933F934F935F936F937F938F939F9378
:1008B000AF93BF93EF93FF938BE592E00E94F70114
:1008C000FF91EF91BF91AF919F918F917F916F9128
:1008D0005F914F913F912F910F900BBE0F900FBEE4
:1008E0000F901F9018951F920F920FB60F92112420
:1008F0000BB60F922F938F939F93EF93FF93E091FB
:100900006B02F0916C028081E0917102F0917202B1
:1009100082FD1DC09081809174028F5F8F73209142
:100920007502821741F0E0917402F0E0E55AFD4F44
:10093000958F80937402FF91EF919F918F912F91EA
:100940000F900BBE0F900FBE0F901F9018958081D7
:10095000F2CF1F920F920FB60F9211242F933F9355
:100960008F939F93AF93BF9380914F0290915002CA
:10097000A0915102B091520230914E0223E0230F18
:100980002D3758F50196A11DB11D20934E0280937D
:100990004F0290935002A0935102B0935202809163
:1009A000530290915402A0915502B09156020196C3
:1009B000A11DB11D8093530290935402A093550240
:1009C000B0935602BF91AF919F918F913F912F911C
:1009D0000F900FBE0F901F90189526E8230F0296D8
:1009E000A11DB11DD2CFEBE5F2E01382128288EE99
:1009F00093E0A0E0B0E084839583A683B78384E08E
:100A000092E09183808385EC90E09587848784ECE5
:100A100090E09787868780EC90E0918B808B81ECCB
:100A200090E0938B828B82EC90E0958B848B86ECAC
:100A300090E0978B868B118E128E138E148EE8EFBA
:100A4000F2E01682178210861186128613861486AB
:100A5000158616861786108A118A128A138A148AB6
:100A6000158A0895789484B5826084BD84B58160C8
:100A700084BD85B5826085BD85B5816085BD809169
:100A80006E00816080936E001092810080918100E1
:100A900082608093810080918100816080938100D9
:100AA000809180008160809380008091B10084609B
:100AB0008093B1008091B00081608093B0008091FC
:100AC0009100826080939100809191008160809379
:100AD0009100809190008160809390008091A100AE
:100AE00082608093A1008091A10081608093A10029
:100AF0008091A00081608093A0008091210182609C
:100B00008093210180912101816080932101809156
:100B1000200181608093200180917A00846080931D
:100B20007A0080917A00826080937A0080917A00C6
:100B3000816080937A0080917A00806880937A0047
:100B40001092C10010923A0310923B0310923C03A2
:100B500010923D031092FA021092FB021092FC02D6
:100B60001092FD020E949E036B017C014B015C010F
:100B700028EB820E2BE0921EA11CB11C0E949E034A
:100B80006C157D058E059F0528F086169706A8062C
:100B9000B906A0F70E9468030E945B010E949E03B1
:100BA0006093FA027093FB028093FC029093FD0223
:100BB00082E192E00E94AA030E949E036B017C01E5
:100BC0004B015C013AE0830E911CA11CB11C0E94F8
:100BD0009E036C157D058E059F0528F086169706E9
:100BE000A806B906A0F781E080930E030E949E0339
:100BF0006093FA027093FB028093FC029093FD02D3
:100C000083E292E00E94AA03EEE3F2E02491E8EF8F
:100C1000F1E084918823C1F090E0880F991FFC01D6
:100C2000E855FE4FC591D491FC01E257FE4FA591C6
:100C3000B4919FB7F8948881E22FE0958E23888342
:100C40008C91E823EC939FBFEAE0F2E02491E4EC7E
:100C5000F1E08491882399F090E0880F991FFC01BE
:100C6000E855FE4FA591B491FC01E257FE4F8591E6
:100C700094918FB7F894EC91E22BEC938FBF0E9484
:100C80005B018AE292E00E94AA0384EF882E9924F5
:100C90009394A12CB12CC0E40E949E03672B682B77
:100CA000692B09F4F0C00E949E03C0905702D090B7
:100CB0005802E0905902F0905A026C157D058E059D
:100CC0009F0508F42BC1C0905702D0905802E090C5
:100CD0005902F0905A029B01AC012C193D094E09B2
:100CE0005F0969017A013AEFC316D104E104F10406
:100CF00008F4D1C060935702709358028093590250
:100D000090935A028092060390920703A0920803E0
:100D1000B092090310920A0310920B0310920C0375
:100D200010920D038091FE029091FF02A0910003AA
:100D3000B09101038093020390930303A0930403F3
:100D4000B09305030E949E036093FE027093FF021E
:100D500080930003909301038BE592E00E94D301FE
:100D6000843611F40E94FB030E949E036093FA02F2
:100D70007093FB028093FC029093FD020E949E03FD
:100D80006B017C0187E392E00E94AA034AE061E0E4
:100D900070E080E090E00E94B7038EE392E00E9452
:100DA000AA034AE0C701B6010E94B70380E492E0BB
:100DB0000E94AA038091FE029091FF02A09100037D
:100DC000B0910103A7019601281B390B4A0B5B0B5D
:100DD000CA01B9014AE00E94B70380E492E00E9490
:100DE000AA036091FE027091FF028091000390912E
:100DF0000103C0900203D0900303E0900403F0903D
:100E000005036C197D098E099F094AE00E94B7030A
:100E100082E492E00E94AA030E949E034AE00E949C
:100E2000B70384E492E00E94AA038BE492E00E945C
:100E3000AA030E949E036B017C012B013C0135E05B
:100E4000430E511C611C711C0E949E036C157D0594
:100E50008E059F0528F04616570668067906A0F706
:100E60008BE592E00E94D301843611F40E94FB03CB
:100E70000E949E036093FE027093FF028093000322
:100E80009093010308C00E949E03623071058105A2
:100E9000910508F008CF61E082E00E94B7020E944D
:100EA000680360E082E00E94B7020E9468038091BC
:100EB0007B00877F80937B00C0937C0080917A00C9
:100EC000806480937A0080917A0086FDFCCF9091B7
:100ED0007800809179008927982789276C01092E4D
:100EE000000CEE08FF0897FF22C06DE28BE592E050
:100EF0000E94190266277727CB016C197D098E099C
:100F00009F094AE00E94B7036AE08BE592E00E94E5
:100F100019020E9468030E948602BECE60935702A7
:100F2000709358028093590290935A02CCCE4AE0B3
:100F3000C701B601E7CFFC0188279927E8942191E2
:100F40002032E9F3293010F02E30C8F32B3241F073
:100F50002D3239F4689404C00E94B907820F911DA4
:100F6000219120532A30C0F31EF4909581959F4F14
:100F700008957AE0979F902D879F802D910D1124E1
:100F80000895A1E21A2EAA1BBB1BFD010DC0AA1FCA
:100F9000BB1FEE1FFF1FA217B307E407F50720F0E2
:100FA000A21BB30BE40BF50B661F771F881F991F5D
:100FB0001A9469F760957095809590959B01AC01A6
:100FC000BD01CF010895EE0FFF1F881F8BBF079053
:0A0FD000F691E02D1994F894FFCF7C
:100FDA000000000019028301B0016602E101BF01AD
:100FEA00D301564D4450565F317C315F564D4450C3
:100FFA00560A00564D4450525F0053746172742071
:10100A0073797374656D00564D4450455F003A32EA
:0E101A003A007C005F564D445045000D0A0020
:00000001FF
